:100000000C94AE010C94D6010C94D6010C94D6013C
:100010000C94A9040C94D6010C94D6010C94D6012E
:100020000C94D6010C94D6010C94D6010C94D601F4
:100030000C94D6010C94D6010C94D6010C94D601E4
:100040000C94D6010C94D6010C94D6010C94D601D4
:100050000C94D6010C94D6010C94D60106201010F5
:1000600020201003413608017F030836410544640F
:10007000544C44051CA0A0A07C054428102844052D
:100080003C4030403C051C2040201C053C4040408A
:100090007C04043F4444054854545424057C08041B
:1000A00004080518242424FC05FC242424180538FD
:1000B00044444438057C0404047805780418047822
:1000C000017F057F1010284402807D017D057F049B
:1000D0000404780518A4A4A47C04087E0909053842
:1000E0005454541805384444447F05384444442843
:1000F000057F4444443805205454547803070507C9
:100100000440404040030402040281FF04030C3019
:10011000C002FF810561514945430507087808077A
:10012000056314081463053F4038403F0507186015
:100130001807053F4040403F0501017F01010526AA
:1001400049494932057F09091966053E4141314E49
:10015000057F09090906053E4141413E057F040826
:10016000107F057F021C027F057F40404040057FD5
:1001700008142241052041413F0103417F41057F91
:100180000808087F053E4141493A057F09090901F0
:10019000057F49494941057F4141221C053E4141B6
:1001A0004122057F49494936057E0909097E063CF9
:1001B0004299A5A5BE050201B1090603221408054E
:1001C00014141414140308142201680124050649A8
:1001D00049291E05364949493605017109050305B6
:1001E0003C4A494930052745454539051814127FD1
:1001F0001005224149493605426151494603427F73
:1002000040053E4141413E04C0300C030140050819
:10021000080808080280400508083E080805120C76
:100220001E0C120381423C033C428101060660968B
:1002300089B542A0074225120824522105242A7FAD
:100240002A1205287C287C280303000303005F0092
:100250000100008040C020A060E0109050D030B07D
:1002600070F0088848C828A868E8189858D838B89E
:1002700078F8048444C424A464E4149454D434B4B6
:1002800074F40C8C4CCC2CAC6CEC1C9C5CDC3CBC3E
:100290007CFC028242C222A262E2129252D232B2AA
:1002A00072F20A8A4ACA2AAA6AEA1A9A5ADA3ABA3E
:1002B0007AFA068646C626A666E6169656D636B656
:1002C00076F60E8E4ECE2EAE6EEE1E9E5EDE3EBEDE
:1002D0007EFE018141C121A161E1119151D131B174
:1002E00071F1098949C929A969E9199959D939B90E
:1002F00079F9058545C525A565E5159555D535B526
:1003000075F50D8D4DCD2DAD6DED1D9D5DDD3DBDAD
:100310007DFD038343C323A363E3139353D333B319
:1003200073F30B8B4BCB2BAB6BEB1B9B5BDB3BBBAD
:100330007BFB078747C727A767E7179757D737B7C5
:1003400077F70F8F4FCF2FAF6FEF1F9F5FDF3FBF4D
:100350007FFF8E02A403D4049302070411241FBE5E
:10036000CFEFD4E0DEBFCDBF11E0A0E0B1E0EEEA18
:10037000FBE002C005900D92AC3CB107D9F722E03A
:10038000ACECB1E001C01D92AE30B207E1F711E074
:10039000CCEAD1E004C02197FE010E94C405C93A0D
:1003A000D107C9F70E940C050C94CA050C940000F3
:1003B00008950895E62FF0E0E052F048EE0FFF1F99
:1003C000DC016D917C91E60FF71F8081918108958A
:1003D000CF93DF93EC010E94980219821A82DF9179
:1003E000CF910895CF93DF93EC010E94F60260E075
:1003F000CE010E94420380E091E09093CD01809372
:10040000CC01DF91CF9108950E9442030895653198
:1004100018F4FC01618302C0FC011182483018F419
:10042000FC0142830895FC0112820895AF92BF92AD
:10043000CF92DF92EF92FF920F931F93CF93DF93B0
:100440007C01D42E8CEC91E00E94DA015C01EC017D
:100450002196FC01C490F70181810C2D10E09801D8
:10046000280F311D2038310554F0118282818730E8
:1004700011F4128207C08F5FF701828303C08F5F80
:10048000F7018183F7016181C7010E94BA02F70178
:100490006281C7010E94AF024298409A101611066D
:1004A000B4F40C2D10E00F5F1F4F0A0D1B1DFE0151
:1004B0008491D11080950E942404A198F2E0FA95CD
:1004C000F1F700C0A19A2196C017D10781F7429A8F
:1004D000F7018181C80EC182DF91CF911F910F91E9
:1004E000FF90EF90DF90CF90BF90AF900895EF9284
:1004F000FF921F93CF93DF937C01142FC62FD72F2A
:100500006991412FC7010E94160298819111F8CF7D
:10051000DF91CF911F91FF90EF9008958CEC91E0C7
:100520000E94D80108958CEC91E00E94D9010895B1
:100530000895862F40980E942404A19882E08A950D
:10054000F1F700C0A19A08954298603430F46064D5
:100550000E949902429A81E0089580E008954298AD
:10056000603130F4606B0E949902429A81E00895F4
:1005700080E008950F931F93CF938C01C62F42986C
:1005800062956F7060610E9499026C2F6F70C80154
:100590000E949902429A81E0CF911F910F91089594
:1005A0000F931F93CF934298603460F4C62F8C0151
:1005B00061E80E9499026C2FC8010E949902429A38
:1005C00081E001C080E0CF911F910F910895429882
:1005D000411102C030E001C032E0630F211124E07C
:1005E000620F68620E949902429A0895CF93DF9346
:1005F000EC01A09A429841982FEF80E792E02150B9
:1006000080409040E1F700C00000419A2FEF84E362
:100610009CE0215080409040E1F700C0000062EA79
:10062000CE010E94990260EACE010E94990268EC14
:10063000CE010E94990260E2CE010E94D00221E028
:1006400041E061E0CE010E94E70260E0CE010E943D
:10065000A402429864EACE010E94990266EACE01A1
:100660000E9499026FEACE010E94990260E0CE01D9
:100670000E94AF0260E0CE010E94BA02429ADF916E
:10068000CF910895EF92FF921F93CF93DF937C0158
:10069000D62F10E060E0C7010E94BA02612FC701A7
:1006A0000E94AF024298409AC0E0D11104C080E09D
:1006B0000E94240403C08FEF0E942404A19882E0CA
:1006C0008A95F1F700C0A19ACF5FC03871F7429ABE
:1006D0001F5F1830F9F6DF91CF911F91FF90EF90D7
:1006E00008956FEF87EF91E00E94340460E381EF9B
:1006F00091E00E943C0460E481EF91E00E943404A8
:100700006FE38BEE91E00E943C0460EC8BEE91E095
:100710000E9434046FEF85EE91E00E943C0460E09B
:1007200085EE91E00E94340468E08FED91E00E9434
:100730003C0467E089ED91E00E94340463E083EDBE
:1007400091E00E943C0408951F93CF93DF9320E231
:1007500030E041E250E062E270E087EF91E00E9419
:100760002B0423E230E044E250E065E270E081EFE8
:1007700091E00E942B0426E230E047E250E068E27C
:1007800070E08BEE91E00E942B0429E230E04AE217
:1007900050E06BE270E085EE91E00E942B042CE2C9
:1007A00030E04DE250E06EE270E08FED91E00E94AB
:1007B0002B042FE230E043E350E064E370E089ED86
:1007C00091E00E942B0422E330E043E350E064E335
:1007D00070E083ED91E00E942B04CEECD1E0EBEED3
:1007E000F1E0F983E88384E08A830190F081E02DD1
:1007F00080818061808311E01C836A818881998176
:100800000E9443041B83DF91CF911F91089583EDD4
:1008100091E00E94330489ED91E00E9433048FED52
:1008200091E00E94330485EE91E00E9433048BEE48
:1008300091E00E94330481EF91E00E94330487EF3E
:1008400091E00E9433040895E82FF0E0EE5AFD4F46
:10085000E491EBB90895FC0175836483518340836F
:100860003383228308950895DC01ED91FC9180810A
:100870006095682360830895DC01ED91FC9180818F
:10088000682B60830895DC011496ED91FC91159717
:10089000208181E090E002C0880F991F6A95E2F7FD
:1008A000822B80830895DC011496ED91FC911597BD
:1008B000208181E090E002C0880F991F6A95E2F7DD
:1008C0008095822380830895E0EBF0E09081977B10
:1008D00090839081482F417050E0440F551F440F82
:1008E000551F440F551F492B81FB222720F930E06B
:1008F0000024369527950794369527950794322F2F
:10090000202D242B20830895E0EBF0E090819F7C44
:100910009083208130E1839FC0011124822B80834A
:100920000895E0EBF0E09081987F90839081892B8F
:1009300080830895CF93DF93D62FC42F0E94640441
:100940008D2F0E9484048C2F0E949104DF91CF91FF
:1009500008951F920F920FB60F9211242F933F9379
:100960004F935F936F937F938F939F93AF93BF93B7
:10097000EF93FF938091FF01882329F0E091FD011F
:10098000F091FE010995FF91EF91BF91AF919F9179
:100990008F917F916F915F914F913F912F910F9028
:1009A0000FBE0F901F901895EF92FF921F93CF9359
:1009B000DF93C5E0D2E00F2EFFEDEF2EF1E0FF2E2A
:1009C000F02DF982E88284E08A83D701ED91FC91D1
:1009D00080818061808311E01C836A818881998194
:1009E0000E9443041B83C0E0D2E0F982E88285E0E4
:1009F0008A83D701ED91FC918081806280831C8382
:100A00006A81888199810E9443041B83DF91CF9181
:100A10001F91FF90EF900895CF93DF9300D01F9226
:100A2000CDB7DEB7CE0101960E94E8010E947405A1
:100A30000E947103CE0101960E94F2010EEC11E0BA
:100A4000FF24F3942FEF84E39CE0215080409040FA
:100A5000E1F700C00000F8018481882339F0628149
:100A6000808191810E944304F801F38243E064E1B4
:100A7000CE0101960E9407026F2DCE0101960E94C1
:100A800004024F2D6EEB71E0CE0101960E947702B9
:100A9000FFEF24E38CE0F15020408040E1F700C0FC
:100AA0000000F8018481882339F06281808191817E
:100AB0000E945304F801138243E064E1CE010196E1
:100AC0000E94070260E0CE0101960E94040240E00D
:100AD0006EEB71E0CE0101960E947702B3CF81E008
:100AE00090E00E94AC0508950E948D0544E060E00E
:100AF00082E00E949A048CE78093B30081E08093A7
:100B0000FF018FE695E09093FE018093FD01E0E701
:100B1000F0E08081826080830895EAE0F2E0118253
:100B20001082138212820895FC018385882399F034
:100B300087819085860F971F9087878332812381D5
:100B4000231748F48617970730F081E083830480E9
:100B5000F581E02D09950895CF93DF93EC01809105
:100B60000A0290910B02009719F0BE010E949405B1
:100B700080910C0290910D02009719F0BE010E9425
:100B80009405DF91CF910895EE0FFF1F0590F4912A
:100B9000E02D099411E0CCEAD1E004C0FE010E94EE
:0E0BA000C4052196CE3AD107C9F7F894FFCFCD
:100BAE0050024C02480242023C0234022D022B0239
:100BBE00270223021D02170214020E020C02070264
:100BCE000102FD01F701F101EB01E501DF01D901A0
:100BDE00D301CD01CB01C901C501BF01BB01B501D7
:100BEE00AE01A801A2019C01960190018A01840127
:100BFE007E017A0174016E01680162015C01560189
:100C0E0050014A0144013E01380132012C012601F6
:100C1E0020011A01140111010C0109010501000145
:100C2E00FC00F600F000EA00E400DE00D900D3007C
:100C3E00CD00CB00C800C200C000BA00B400AE00A8
:100C4E00A800A2009C00960091008B0085007F00FA
:100C5E00790073006D006900670063005C004865F1
:0C0C6E006C6C6F20576F726C64210000EA
:00000001FF
